:020000040800F2
:1000000000800120D90D00088B0200088D02000835
:100010008F0200089102000893020008000000000F
:100020000000000000000000000000009502000831
:100030009702000800000000990200089B020008D7
:10004000290E0008290E0008290E0008290E0008B4
:10005000290E0008290E0008290E0008290E0008A4
:10006000290E0008290E0008290E0008290E000894
:10007000290E0008290E0008290E0008290E000884
:10008000290E0008290E0008290E0008290E000874
:10009000290E0008290E0008290E0008290E000864
:1000A000290E0008290E0008290E0008290E000854
:1000B000290E0008290E0008290E0008290E000844
:1000C000290E0008290E0008290E0008290E000834
:1000D000290E0008290E0008290E0008290E000824
:1000E000290E0008290E0008290E0008290E000814
:1000F000290E0008290E0008290E0008290E000804
:10010000290E0008290E0008290E0008290E0008F3
:10011000290E0008290E0008290E0008290E0008E3
:10012000290E0008290E0008290E0008290E0008D3
:10013000290E0008290E0008290E0008290E0008C3
:10014000290E0008290E0008290E0008290E0008B3
:10015000290E0008290E0008290E0008290E0008A3
:10016000290E0008290E0008290E0008290E000893
:10017000290E0008290E0008290E000800000000C2
:08018000290E0008290E0008F9
:100188000348044B834202D0034B03B1184770471E
:100198000C0000200C000020000000000548064B61
:1001A8001B1AD90F01EBA301491002D0034B03B16D
:1001B800184770470C0000200C00002000000000C9
:1001C80010B5064C237843B9FFF7DAFF044B13B197
:1001D8000448AFF300800123237010BD0C000020F9
:1001E80000000000840E000808B5054B1BB1054946
:1001F8000548AFF30080BDE80840FFF7CFBF00BF58
:100208000000000010000020840E000872B6FEE70F
:1002180000B597B04422002105A800F002FE002393
:10022800009301930293039304934FF4007000F03A
:1002380013FDD0B91023059301230B9300230C93CE
:1002480060220D920F9305A800F02CF978B90F23BE
:10025800009300210191029103910491684600F0F6
:100268002FFC30B917B05DF804FBFFF7CFFFFFF79D
:10027800CDFFFFF7CBFF08B500F050F8FFF7C8FF38
:10028800FEE7FEE7FEE7FEE7FEE7FEE7704770479A
:10029800704708B500F052F808BD000082B00A4B5C
:1002A8001A6E42F001021A661A6E02F001020092FA
:1002B800009A9A6D42F080529A659B6D03F08053C4
:1002C8000193019B02B0704700100240104B1B784D
:1002D8000BB90120704710B504464FF47A70B0FB93
:1002E800F3F30C4A1068B0FBF3F000F053FD68B963
:1002F8000F2C01D901200AE0002221464FF0FF30DF
:1003080000F038FD044B1C60002000E0012010BD07
:1003180000000020080000200400002010B5032081
:1003280000F016FD0F20FFF7D1FF10B10124204681
:1003380010BD0446FFF7B2FFF9E70000034B1B7836
:10034800034A11680B441360704700BF0000002087
:1003580028000020014B1868704700BF28000020C3
:1003680030B583B00446204B9B6D13F0805F0BD0F3
:1003780000F06AFCB0F5007F17D0802C1FD82DD074
:10038800702C2DD000211BE0174DAB6D43F080532E
:10039800AB65AB6D03F080530193019B00F054FCF7
:1003A800AB6D23F08053AB65E4E7802C03D9A02C18
:1003B80003D9022104E0002102E0012100E0032129
:1003C8000A4A136823F007030B431360136803F00A
:1003D80007038B4206D1002003B030BD0221EFE7AE
:1003E8000121EDE70120F7E700100240002002405C
:1003F800284A9368D26802F0030213F00C030AD06B
:100408000C2B06D0042B1FD0082B20D0002002462E
:1004180010E0012AF6D11F4A126812F0080F0CD119
:100428001C4AD2F89420C2F303221B4951F8222017
:1004380043B100200C2B0DD07047164A1268C2F346
:100448000312F2E71046F5E714480022F2E71448D1
:100458000022EFE70F4BDB6803F00303022B03D006
:10046800032B02D10E4A00E00C4A0A49CB68C3F3B9
:1004780002130133C868C0F3062002FB00F0B0FB8A
:10048800F3F0CB68C3F3416301335B00B0FBF3F0D7
:10049800D2E700BF001002409C0E00080024F400C0
:1004A80000127A00002800F0F182F0B583B004460B
:1004B800964B9D6805F00C05DE6806F00306036898
:1004C80013F0100F5AD0E5B10C2D18D0A369002BEA
:1004D80000F0BB808D4A136843F001031360FFF7F7
:1004E80039FF0746894B1B6813F0020F40F09A80CA
:1004F800FFF730FFC01B0228F4D90320D1E2012EF8
:10050800E4D1824B1B6813F0020F03D0A369002BC0
:1005180000F0BE82206A7D4B1B6813F0080F5BD089
:100528007A4B1B6803F0F00398425CD8774B1A6843
:1005380042F008021A601A6822F0F002216A0A439F
:100548001A605A6822F47F42E16942EA01225A603D
:10055800002D60D0FFF74CFF6C4B9B68C3F303136F
:100568006B4AD35C03F01F03D8406A4B18606A4B90
:100578001868FFF7ABFE002840F09382236813F059
:10058800010F00F08180082D75D00C2D71D06368A3
:10059800B3F5803F00F09780B3F5A02F00F0998065
:1005A8005A4B1A6822F480321A601A6822F48022A0
:1005B8001A606368002B00F09980FFF7CBFE0746AE
:1005C800524B1B6813F4003F5ED1FFF7C3FEC01BFC
:1005D8006428F5D9032064E24C4BD3F894301B0906
:1005E80003F0F003A0E7FFF7BBFE002840F05282BB
:1005F800464B1A6842F008021A601A6822F0F002A4
:10060800216A0A431A605A6822F47F42E16942EA81
:1006180001225A609EE7206AFFF7A2FE002899D0BF
:1006280001203EE2394B1A6842F008021A601A6843
:1006380022F0F002216A0A431A605A6822F47F42C3
:10064800E16942EA01225A6098E7304A136823F0C8
:1006580001031360FFF77EFE07462C4B1B6813F05F
:10066800020F8BD0FFF776FEC01B0228F5D90320B6
:1006780017E2032E8BD1254B1B6813F4003F03D0E0
:100688006368002B00F00882236813F0020F58D02B
:10069800042D45D00C2D41D0E368002B77D01B4AA0
:1006A800136843F480731360FFF754FE0646174B34
:1006B8001B6813F4806F61D1FFF74CFE801B022882
:1006C800F5D90320EDE1114A136843F48033136030
:1006D8006FE703F18043A3F53C331A6842F48022A4
:1006E8001A601A6842F480321A6062E7FFF732FE35
:1006F8000746064B1B6813F4003FC5D0FFF72AFED8
:10070800C01B6428F5D90320CBE100BF00100240CC
:10071800CC0E00080800002004000020022EBBD1E7
:10072800A34B1B6813F4806F03D0E368002B00F021
:10073800B5819F4A536823F0F853216943EA01635E
:100748005360236813F0080F4CD063699BB3984A31
:10075800D2F8943043F00103C2F89430FFF7FAFD61
:100768000646934BD3F8943013F0020F3AD1FFF7B3
:10077800F1FD801B0228F4D9032092E18C4A5368CA
:1007880023F0F853216943EA01635360D9E7884AA3
:10079800136823F480731360FFF7DCFD0646844B6F
:1007A8001B6813F4806FCCD0FFF7D4FD801B0228A0
:1007B800F5D9032075E17E4AD2F8943023F001037D
:1007C800C2F89430FFF7C6FD0646794BD3F894304B
:1007D80013F0020F06D0FFF7BDFD801B0228F4D9E5
:1007E80003205EE1236813F0040F7AD0704B9B6DF1
:1007F80013F0805F36D16E4B9A6D42F080529A6545
:100808009B6D03F080530193019B0126694B1B6884
:1008180013F4807F28D0A368012B39D0052B3FD053
:10082800634BD3F8902022F00102C3F89020D3F84C
:10083800902022F00402C3F89020A368002B3DD03A
:10084800FFF788FD07465A4BD3F8903013F0020F94
:1008580046D1FFF77FFDC01B41F288339842F2D999
:1008680003201EE10026D1E7524A136843F480733F
:100878001360FFF76FFD07464E4B1B6813F4807F2C
:10088800C9D1FFF767FDC01B0228F5D9032008E18D
:10089800474AD2F8903043F00103C2F89030CCE7D1
:1008A800434BD3F8902042F00402C3F89020D3F8C9
:1008B800902042F00102C3F89020BEE7FFF74AFDFE
:1008C80007463B4BD3F8903013F0020F08D0FFF7E0
:1008D80041FDC01B41F288339842F2D90320E0E081
:1008E800EEB9A36A002B00F0DB80022B1DD00C2D83
:1008F80000F0DD802E4A136823F080731360FFF741
:1009080029FD04462A4B1B6813F0007F00F0B780CE
:10091800FFF720FD001B0228F4D90320C1E0244A78
:10092800936D23F080539365DBE7214BDB6803F07D
:100938000301E26A91420FD00C2D00F0B4801C4BE9
:100948001B6813F0806F40F0B080194B1B6813F0E0
:10095800805F31D00120A4E003F07002216B0139DF
:10096800B2EB011FE8D103F4FE42616BB2EB012F39
:10097800E2D103F40031A26B073A18BF0122914279
:10098800DAD103F4C001E26B5208013AB1EB425FDD
:10099800D2D103F0C063226C5208013AB3EB426F24
:1009A800CAD1034B1B6813F0007F4ED0002078E0BB
:1009B80000100240007000403E4A136823F0807324
:1009C8001360FFF7C7FC05463A4B1B6813F0007F1E
:1009D80006D0FFF7BFFC401B0228F5D9032060E0D2
:1009E800344AD36834491940E36A206B013843EA32
:1009F8000013606B43EA0023E06B4008013843EAC8
:100A08004053206C4008013843EA4063A06B00095A
:100A180043EA40431943D160136843F0807313607D
:100A2800D36843F08073D360FFF794FC0446214BEE
:100A38001B6813F0007F06D1FFF78CFC001B02280F
:100A4800F5D903202DE000202BE01A4B1A6842F05C
:100A580080721A60DA6842F08072DA60FFF77AFC16
:100A68000446144B1B6813F0007F06D1FFF772FC95
:100A7800031B022BF5D9032013E0002011E00D4AD7
:100A8800D1680E4B0B40D36000200AE0012070476C
:100A9800012006E0012004E0012002E0012000E03E
:100AA800002003B0F0BD0120FBE70120F9E7012099
:100AB800F7E700BF001002408C809DF9FCFFEEFEB6
:100AC800002800F0AF8070B50D460446594B1B68EE
:100AD80003F007038B420BD2564A136823F007032F
:100AE8000B431360136803F007038B4240F09C80AC
:100AF800236813F0020F0CD0A2684F4B9B6803F0D9
:100B0800F0039A4205D94C498B6823F0F0031A4345
:100B18008A60236813F0010F39D06368032B09D06A
:100B2800022B26D063BB444A126812F0020F06D18A
:100B3800012076E0404A126812F0007F76D03E49E4
:100B48008A6822F0030213438B60FFF703FC064612
:100B5800394B9B6803F00C036268B3EB820F16D025
:100B6800FFF7F8FB801B41F288339842F0D9032045
:100B780057E0314A126812F4003FE0D1012050E0FA
:100B88002D4A126812F4806FD9D1012049E02368F8
:100B980013F0020F0CD0A268274B9B6803F0F003F8
:100BA8009A4205D224498B6823F0F0031A438A60DD
:100BB800204B1B6803F00703AB420AD91D4A136890
:100BC80023F007032B431360136803F00703AB42BA
:100BD8002ED1236813F0040F06D0174A936823F424
:100BE800E063E1680B439360236813F0080F07D0B4
:100BF800114A936823F46053216943EAC10393605F
:100C0800FFF7F6FB0C4B9B68C3F303130B4AD35C4B
:100C180003F01F03D8400A4B18600A4B1868FFF707
:100C280055FB70BD012070470120FAE70120F8E765
:100C38000120F6E70020024000100240CC0E000818
:100C48000800002004000020024B186800F4C0606F
:100C5800704700BF00700040B0F5007F0FD01F4BF9
:100C68001B6803F4C063B3F5806F34D01B4A136864
:100C780023F4C06343F48063136000207047174B6C
:100C88001B6803F4C063B3F5007F20D0134A1368D0
:100C980023F4C06343F400731360114B1B683222C2
:100CA80002FB03F30F4AA2FB03239B0C013300E072
:100CB800013B0A4A526912F4806F01D0002BF7D128
:100CC800064B5B6913F4806F03D100207047002046
:100CD8007047032070470020704700BF0070004035
:100CE8000800002083DE1B43002808DB0901C9B285
:100CF80000F1604000F5614080F80013704700F093
:100D08000F000901C9B2014B1954704714ED00E0F6
:100D180000B500F00700C0F1070CBCF1040F28BFB4
:100D28004FF0040C031D062B0FD9C31E4FF0FF3ED6
:100D38000EFA0CF021EA000199400EFA03FE22EAAD
:100D48000E0241EA02005DF804FB0023EEE7000012
:100D5800074AD36823F4E0631B041B0C000200F469
:100D6800E060034343F0BF6343F40033D36070474C
:100D780000ED00E010B50446054BD868C0F302202A
:100D8800FFF7C6FF01462046FFF7AEFF10BD00BFC4
:100D980000ED00E00138B0F1807F0BD24FF0E02386
:100DA8005861054AF02182F8231000209861072233
:100DB8001A6170470120704700ED00E0034AD2F83D
:100DC800883043F47003C2F88830704700ED00E0C3
:100DD800DFF834D0FFF7F2FF0C480D490D4A002325
:100DE80002E0D458C4500433C4188C42F9D30A4AD8
:100DF8000A4C002301E013600432A242FBD300F046
:100E080019F8FFF738FAFEE70080012000000020FB
:100E18000C000020E40E00080C0000202C0000202C
:100E2800FEE702440346934200D1704703F8011BD2
:100E3800F9E7000070B50D4D0D4C641BA410002699
:100E4800A64209D10B4D0C4C00F018F8641BA410F5
:100E58000026A64205D170BD55F8043B98470136D7
:100E6800EEE755F8043B98470136F2E7DC0E000838
:100E7800DC0E0008DC0E0008E00E0008F8B500BF24
:100E8800F8BC08BC9E467047F8B500BFF8BC08BC63
:040E98009E467047BB
:100E9C00A0860100400D0300801A060000350C00EE
:100EAC0040420F0080841E0000093D0000127A00B1
:100EBC000024F40000366E010048E801006CDC02EE
:100ECC0000000000000000000102030406070809EE
:040EDC00F101000818
:040EE000C90100083C
:0C0EE400010000001000000000093D00AB
:0400000508000DD909
:00000001FF
